:04000000AEEF3FF030
:107F28003F065B4F666D7D077F6FA1EC3FF0C7ECA6
:107F38003FF09BEF3FF000EF00F0000E926E800ED6
:107F4800936E000E806E000E816E809080928094F9
:107F580080961200280EF66E7F0EF76E000EF86EF1
:107F680000EE0BF010EE0AF00900F5CFEEFFE55039
:107F7800E150FAE100EE01F00A0EEE6AE806FDE1D2
:107F8800000199EF3FF080800CC08AFF1A0E176E2F
:107F9800F80EE82EFED7172EFCD700D080908082EE
:107FA8000FC08AFF1A0E176EF80EE82EFED7172E8E
:107FB800FCD700D0809280840BC08AFF1A0E176EFF
:107FC800F80EE82EFED7172EFCD700D080948086B6
:107FD80014C08AFF1A0E176EF80EE82EFED7172E59
:107FE800FCD700D080961A0E176EF80EE82EFED732
:087FF800172EFCD700D0120087
:020000040020DA
:08000000FFFFFFFFFFFFFFFF00
:020000040030CA
:0E000000FF09181EFF8181FF0FC00FE00F40A7
:00000001FF
